:100000000C9456000C9473000C9473000C947300C1
:100010000C9473000C9473000C9473000C94730094
:100020000C9473000C9473000C9473000C94730084
:100030000C9473000C9473000C9473000C94730074
:100040000C9473000C9473000C9473000C94730064
:100050000C9473000C9473000C9473000C94730054
:100060000C9473000C9473000C9473000C94730044
:100070000C9473000C9473000C9473000C94730034
:100080000C9473000C9473000C9473000C94730024
:100090000C9473000C9473000C9473000C94730014
:1000A0000C9473000C9473000C94730011241FBE05
:1000B000CFEFDAE0DEBFCDBF11E0A0E0B1E0E2E6D5
:1000C000F5E002C005900D92A030B107D9F711E01C
:1000D000A0E0B1E001C01D92AE35B107E1F70E948A
:1000E00025020C94AF020C940000E0910001E53071
:1000F00069F1E63070F4E23019F1E33028F4EE23D0
:10010000B1F0E130A9F515C0E330E1F0E43081F55C
:100110001BC0E83009F1E93028F4E630C9F0E730D7
:1001200039F518C0E930D1F0EA3011F519C080E492
:1001300001C081E480937C0080917B008F7D16C09C
:1001400084E4F8CF85E4F6CF86E4F4CF87E4F2CFF9
:1001500080E407C081E405C082E403C083E401C0F9
:1001600087E480937C0080917B00806280937B0099
:1001700080917A00806180937A0080917A00806417
:1001800080937A0080917A0084FFFCCFF0E0EE0F3C
:10019000FF1FEC5FFE4F118210822091780030E04B
:1001A0003183208340917900942F80E0822B932B20
:1001B00091838083809100018F5F809300018B3059
:1001C00010F010920001089587E880937A0080E88B
:1001D00080937B00EEE7F0E08081836F8083EDE722
:1001E000F0E080818F6080830895809101018823F1
:1001F00011F081500AC080911A01882341F4469B76
:1002000006C081E080931A018FE080930101809104
:100210000201882311F081500AC080911B018823BC
:1002200041F4479B06C081E080931B018FE08093DF
:10023000020180910301882321F081508093030102
:10024000089580911C01882341F42A9B06C081E017
:1002500080931C018FE08093030108953E983F989E
:100260002298469A479A2A9A089580911D018C30C7
:1002700008F455C080911F01803311F4289806C0FE
:10028000813311F4289A06C0803311F4299803C0F1
:10029000813309F4299A80911F01803311F42A983F
:1002A00006C0813311F42A9A06C0803311F42B98CA
:1002B00003C0813309F42B9A80911F01803311F41C
:1002C0002F9806C0813311F42F9A06C0803311F4A1
:1002D000589803C0813309F4589A80911F018033E4
:1002E00011F4599806C0813311F4599A06C080332D
:1002F00011F45D9803C0813309F45D9A80911F0168
:10030000803311F42E9806C0813311F42E9A06C062
:10031000803311F476980895813309F4769A08951C
:1003200084B18B6C84B98AB183628AB96E9A15B82C
:100330001BB81EB8089502C08091CE008091C800FD
:1003400087FDFACF0895EEE3F1E080E208C0209146
:10035000C80025FFFCCF9093CE00815019F09191F9
:100360009923A9F70895EF92FF920F931F93CF93CC
:10037000DF9389E480933E0110923F010E94A30124
:10038000C4E0D1E00BE01CE210933E018991999109
:100390006FE371E04AE050E00E946A020E94A3010C
:1003A000015091F7CAE1D1E083E0F82E9CE2E92EFA
:1003B0000EE311E0E0923E01899190E0B8016F5F99
:1003C0007F4F4AE050E00E946A020E94A301FA9423
:1003D00079F78DE080933E018AE080933F01F80138
:1003E00012820E94A301DF91CF911F910F91FF9084
:1003F000EF90089512C09091CE0080911D01E82FDA
:10040000F0E0E25EFE4F90839A3069F08F5F809358
:100410001D01803210F010921D018091C80087FDEF
:10042000EACF80E0089581E00895E9ECF0E0808172
:1004300088618083EAECF0E080818660808310929E
:10044000CD0087E68093CC00089580E897E00FB652
:10045000F89480936100909361000FBEAFE3BCE914
:100460001197F1F700C0000090E00FB6F894809368
:100470006100909361000FBE0E9490010E94E40011
:100480000E9415028FEF91EEA4E081509040A040B1
:10049000E1F700C00000C5E28FEF90E7A2E08150D5
:1004A0009040A040E1F700C000000E94F500C1505C
:1004B00099F70E9475000E94B3010E94FA018823F7
:1004C00051F380911E018F3411F40E943501109276
:1004D0001D01E1CFFB019F01E8944230C4F0453299
:1004E000B4F44A3029F497FB1EF4909581959F4F00
:1004F000642F77270E949B02805D8A330CF0895D10
:100500008193CB010097A1F716F45DE2519310821D
:10051000C9010C948B02DC01FC01672F71917723D8
:10052000E1F7329704C07C916D9370836291AE17AE
:10053000BF07C8F30895AA1BBB1B51E107C0AA1F40
:10054000BB1FA617B70710F0A61BB70B881F991F74
:100550005A95A9F780959095BC01CD010895F8941E
:02056000FFCFCB
:00000001FF
