:100000000C9456000C9473000C9473000C947300C1
:100010000C9473000C9473000C9473000C94730094
:100020000C9473000C9473000C9473000C94730084
:100030000C9473000C9473000C9473000C94730074
:100040000C9473000C9473000C9473000C94730064
:100050000C9473000C9473000C9473000C94730054
:100060000C9473000C9473000C9473000C94730044
:100070000C9473000C9473000C9473000C94730034
:100080000C9473000C9473000C9473000C94730024
:100090000C9473000C9473000C9473000C94730014
:1000A0000C9473000C9473000C94730011241FBE05
:1000B000CFEFDAE0DEBFCDBF11E0A0E0B1E0E0EBD2
:1000C000F5E002C005900D92A030B107D9F711E01C
:1000D000A0E0B1E001C01D92A837B107E1F70E948E
:1000E0004F020C94D6020C9400000F931F93CF93F1
:1000F000DF93E3E0F1E040E077E460E412E4D3E48E
:1001000051E4C4E4B5E4A6E4453051F1463060F46E
:100110004230E9F0433018F4413099F415C04330CF
:10012000C9F0443071F419C0483031F1493028F435
:100130004630E1F0473029F41CC0493001F14A3023
:1001400009F160937C000EC050937C000BC0C093FB
:100150007C0008C0B0937C0005C0A0937C0002C066
:1001600070937C0020917B002F7D11C060937C00F8
:100170000BC050937C0008C010937C0005C0D09346
:100180007C0002C070937C0020917B002062209351
:100190007B0020917A00206120937A0020917A00E0
:1001A000206420937A0020917A0024FFFCCF1182F2
:1001B00010822091780030E0318320830091790013
:1001C000902F80E0282B392B219331934F5F4B30B8
:1001D00009F09ACFDF91CF911F910F91089587E891
:1001E00080937A0080E880937B00EEE7F0E08081E6
:1001F000836F8083EDE7F0E080818F6080830895D6
:1002000080910001882311F081500AC0809119016A
:10021000882341F4469B06C081E08093190189E15F
:100220008093000180910101882311F081500AC060
:1002300080911A01882341F4479B06C081E0809396
:100240001A0189E18093010180910201882321F044
:10025000815080930201089580911B01882341F40D
:100260002A9B06C081E080931B0189E180930201F3
:1002700008953E983F982298469A479A2A9A089558
:1002800080911C018C3008F455C080911E01803390
:1002900011F4289806C0813311F4289A06C08033DF
:1002A00011F4299803C0813309F4299A80911E0121
:1002B000803311F42A9806C0813311F42A9A06C0BB
:1002C000803311F42B9803C0813309F42B9A809169
:1002D0001E01803311F42F9806C0813311F42F9A38
:1002E00006C0803311F4589803C0813309F4589A3A
:1002F00080911E01803311F4599806C0813311F4A6
:10030000599A06C0803311F45D9803C0813309F413
:100310005D9A80911E01803311F42E9806C08133BE
:1003200011F42E9A06C0803311F476980895813323
:1003300009F4769A089584B18B6C84B98AB183628A
:100340008AB96E9A15B81BB81EB8089502C080917C
:10035000CE008091C80087FDFACF0895EDE3F1E06B
:1003600080E208C02091C80025FFFCCF9093CE000A
:10037000815019F091919923A9F70895EF92FF9276
:100380000F931F93CF93DF9389E480933D011092E5
:100390003E010E94AE01C3E0D1E00BE01CE21093ED
:1003A0003D01899199916EE371E04AE050E00E942D
:1003B00091020E94AE01015091F7C9E1D1E083E0C2
:1003C000F82E9CE2E92E0DE311E0E0923D018991C7
:1003D00090E0B8016F5F7F4F4AE050E00E949102C9
:1003E0000E94AE01FA9479F78DE080933D018AE096
:1003F00080933E01F80112820E94AE01DF91CF91FD
:100400001F910F91FF90EF90089512C09091CE0030
:1004100080911C01E82FF0E0E35EFE4F90839A305C
:1004200069F08F5F80931C01803210F010921C01E4
:100430008091C80087FDEACF80E0089581E00895AB
:10044000E9ECF0E0808188618083EAECF0E0808173
:10045000866080831092CD0087E68093CC0008955B
:1004600086B590E00895882329F4809184009091C6
:10047000850008958091940090919500089583E0FF
:100480008BB91AB888E48093B8008FEF99E6A8E199
:1004900081509040A040E1F700C00000089580E83E
:1004A00097E00FB6F89480936100909361000FBEBF
:1004B000AFE3BCE91197F1F700C0000090E00FB680
:1004C000F89480936100909361000FBE0E949B019D
:1004D0000E94EF000E9420028FEF91EEA4E0815075
:1004E0009040A040E1F700C000008FEF91EFABE239
:1004F00081509040A040E1F700C000000E947500CC
:100500000E9400010E94BE010E940502882369F337
:1005100080911D018F3411F40E94400110921C0142
:10052000E4CFFB019F01E8944230C4F04532B4F4BB
:100530004A3029F497FB1EF4909581959F4F642FC4
:1005400077270E94C202805D8A330CF0895D819317
:10055000CB010097A1F716F45DE251931082C90117
:100560000C94B202DC01FC01672F71917723E1F753
:10057000329704C07C916D9370836291AE17BF0770
:10058000C8F30895AA1BBB1B51E107C0AA1FBB1FDC
:10059000A617B70710F0A61BB70B881F991F5A950F
:1005A000A9F780959095BC01CD010895F894FFCFEF
:00000001FF
