:100000000C9456000C9473000C9473000C947300C1
:100010000C9473000C9473000C9473000C94730094
:100020000C9473000C9473000C9473000C94730084
:100030000C9473000C9473000C9473000C94730074
:100040000C9473000C9473000C9473000C94730064
:100050000C9473000C9473000C9473000C94730054
:100060000C9473000C9473000C9473000C94730044
:100070000C9473000C9473000C9473000C94730034
:100080000C9473000C9473000C9473000C94730024
:100090000C9473000C9473000C9473000C94730014
:1000A0000C9473000C9473000C94730011241FBE05
:1000B000CFEFDAE0DEBFCDBF11E0A0E0B1E0EAEFC4
:1000C000F1E002C005900D92A030B107D9F711E020
:1000D000A0E0B1E001C01D92A030B107E1F70E949D
:1000E000BF000C94FB000C940000982F9F7190644B
:1000F00090937C00EAE7F0E09081906890838072B2
:10010000806880937B008081806480838091780008
:1001100090917900392F20E090E0822B932B089565
:1001200086B590E00895882329F480918400909109
:10013000850008958091940090919500089583E042
:100140008BB91AB888E48093B8008FEF99E6A8E1DC
:1001500081509040A040E1F700C000000895E8EC15
:10016000F0E0908195FFFDCF8093CE000895E8ECFC
:10017000F0E080818823E9F38091CE00089597E034
:1001800080E80FB6F89480936100909361000FBEF1
:100190008FE39CE90197F1F700C0000090E080E850
:1001A0000FB6F89480936100909361000FBE81E0D8
:1001B0008093CD0088E18093C90086E08093CA00D7
:1001C00087E68093CC006A9A509A14BC85E085BD7E
:1001D000729A28987298289AEAE7F0E080818760FE
:1001E00080838FEF91EEA4E081509040A040E1F732
:0A01F00000C00000FFCFF894FFCF1D
:00000001FF
