:100000000C9456000C9473000C9473000C947300C1
:100010000C9473000C9473000C9473000C94730094
:100020000C9473000C9473000C9473000C94730084
:100030000C9473000C9473000C9473000C94730074
:100040000C9473000C9473000C9473000C94730064
:100050000C9473000C9473000C9473000C94730054
:100060000C9473000C9473000C9473000C94730044
:100070000C9473000C9473000C9473000C94730034
:100080000C9473000C9473000C9473000C94730024
:100090000C9473000C9473000C9473000C94730014
:1000A0000C9473000C9473000C94730011241FBE05
:1000B000CFEFDAE0DEBFCDBF11E0A0E0B1E0EAE9CA
:1000C000F5E002C005900D92A030B107D9F711E01C
:1000D000A0E0B1E001C01D92AE35B107E1F70E948A
:1000E00027020C94CB020C940000E0910001E53053
:1000F00069F1E63070F4E23019F1E33028F4EE23D0
:10010000B1F0E130A9F515C0E330E1F0E43081F55C
:100110001BC0E83009F1E93028F4E630C9F0E730D7
:1001200039F518C0E930D1F0EA3011F519C080E492
:1001300001C081E480937C0080917B008F7D16C09C
:1001400084E4F8CF85E4F6CF86E4F4CF87E4F2CFF9
:1001500080E407C081E405C082E403C083E401C0F9
:1001600087E480937C0080917B00806280937B0099
:1001700080917A00806180937A0080917A00806417
:1001800080937A0080917A0084FFFCCFF0E0EE0F3C
:10019000FF1FEC5FFE4F118210822091780030E04B
:1001A0003183208340917900942F80E0822B932B20
:1001B00091838083809100018F5F809300018B3059
:1001C00010F010920001089587E880937A0080E88B
:1001D00080937B00EEE7F0E08081836F8083EDE722
:1001E000F0E080818F6080830895809101018823F1
:1001F00011F0815008C0379908C080911A018F5FB3
:1002000080931A018AE08093010180910201882382
:1002100011F0815008C0369908C080911B018F5F92
:1002200080931B018AE0809302018091030188235F
:1002300021F081508093030108951D9908C0809199
:100240001C018F5F80931C018AE080930301089555
:100250003E983F982598469A479A2D9A08958091FE
:100260001D018B3008F45CC080911F01803311F4B4
:10027000289803C0813309F4289A809120018033A3
:1002800011F4299803C0813309F4299A809121013E
:10029000803311F42A9803C0813309F42A9A80919B
:1002A0002201803311F42B9803C0813309F42B9A77
:1002B00080912301803311F42F9803C0813309F416
:1002C0002F9A80912401803311F4589803C0813310
:1002D00009F4589A80912501803311F4599803C08C
:1002E000813309F4599A80912601803311F45D9885
:1002F00003C0813309F45D9A80912701803311F4A2
:100300002E9803C0813309F42E9A809128018033FE
:1003100011F4769803C0813309F4769A10921D0186
:10032000089584B18F6884B98AB183628AB96E9A5C
:1003300015B81BB81EB8089502C08091CE008091F8
:10034000C80087FDFACF0895EEE3F1E080E208C02F
:100350002091C80025FFFCCF9093CE00815019F06A
:1003600091919923A9F70895EF92FF920F931F930C
:10037000CF93DF9389E480933E0110923F010E9466
:10038000A401C4E0D1E00BE01CE210933E0189918E
:1003900099916FE371E04AE050E00E9486020E946A
:1003A000A401015091F7CAE1D1E083E0F82E9CE26C
:1003B000E92E0EE311E0E0923E01888190E0B80161
:1003C0006F5F7F4F4AE050E00E94860219920E94C0
:1003D000A401FA9471F78DE080933E018AE0809346
:1003E0003F01F80112820E94A401DF91CF911F9179
:1003F0000F91FF90EF90089515C08091CE008D3041
:10040000A9F08A3099F090911D01E92FF0E0E25EA9
:10041000FE4F8083892F8F5F80931D01803210F003
:1004200010921D018091C80087FDE7CF0895E9EC87
:10043000F0E0808188618083EAECF0E08081866072
:1004400080831092CD0087E68093CC00089580E8E9
:1004500097E00FB6F89480936100909361000FBE0F
:10046000AFE3BCE91197F1F700C0000090E00FB6D0
:10047000F89480936100909361000FBE0E949101F7
:100480000E94E4000E9417028FEF91EEA4E08150D9
:100490009040A040E1F700C0000015B81BB8C0E0D4
:1004A000D3E08FEF90E7A2E081509040A040E1F7C9
:1004B00000C000000E94F5000E94FC0180911D0117
:1004C000882349F080911E018F3419F40E942F0176
:1004D00002C010921D018C2F6D2F0E947A02992369
:1004E00011F40E947500C43218F00E94B401C0E0FB
:1004F000CF5FD7CF991B79E004C0991F961708F0FA
:10050000961B881F7A95C9F780950895FB019F0176
:10051000E8944230C4F04532B4F44A3029F497FBF1
:100520001EF4909581959F4F642F77270E94B70204
:10053000805D8A330CF0895D8193CB010097A1F730
:1005400016F45DE251931082C9010C94A702DC01FC
:10055000FC01672F71917723E1F7329704C07C91FA
:100560006D9370836291AE17BF07C8F30895AA1BFD
:10057000BB1B51E107C0AA1FBB1FA617B70710F08E
:10058000A61BB70B881F991F5A95A9F780959095C0
:0A059000BC01CD010895F894FFCFDF
:00000001FF
